{
  "contractName": "dBank",
  "abi": [
    {
      "inputs": [
        {
          "internalType": "contract Token",
          "name": "_token",
          "type": "address"
        }
      ],
      "stateMutability": "nonpayable",
      "type": "constructor"
    },
    {
      "anonymous": false,
      "inputs": [
        {
          "indexed": true,
          "internalType": "address",
          "name": "user",
          "type": "address"
        },
        {
          "indexed": false,
          "internalType": "uint256",
          "name": "collateralEtherAmount",
          "type": "uint256"
        },
        {
          "indexed": false,
          "internalType": "uint256",
          "name": "borrowedTokenAmount",
          "type": "uint256"
        }
      ],
      "name": "Borrow",
      "type": "event"
    },
    {
      "anonymous": false,
      "inputs": [
        {
          "indexed": true,
          "internalType": "address",
          "name": "user",
          "type": "address"
        },
        {
          "indexed": false,
          "internalType": "uint256",
          "name": "etherAmount",
          "type": "uint256"
        },
        {
          "indexed": false,
          "internalType": "uint256",
          "name": "timeStart",
          "type": "uint256"
        }
      ],
      "name": "Deposit",
      "type": "event"
    },
    {
      "anonymous": false,
      "inputs": [
        {
          "indexed": true,
          "internalType": "address",
          "name": "user",
          "type": "address"
        },
        {
          "indexed": false,
          "internalType": "uint256",
          "name": "fee",
          "type": "uint256"
        }
      ],
      "name": "PayOff",
      "type": "event"
    },
    {
      "anonymous": false,
      "inputs": [
        {
          "indexed": true,
          "internalType": "address",
          "name": "user",
          "type": "address"
        },
        {
          "indexed": false,
          "internalType": "uint256",
          "name": "etherAmount",
          "type": "uint256"
        },
        {
          "indexed": false,
          "internalType": "uint256",
          "name": "depositTime",
          "type": "uint256"
        },
        {
          "indexed": false,
          "internalType": "uint256",
          "name": "interest",
          "type": "uint256"
        }
      ],
      "name": "Withdraw",
      "type": "event"
    },
    {
      "inputs": [
        {
          "internalType": "address",
          "name": "",
          "type": "address"
        }
      ],
      "name": "collateralEther",
      "outputs": [
        {
          "internalType": "uint256",
          "name": "",
          "type": "uint256"
        }
      ],
      "stateMutability": "view",
      "type": "function"
    },
    {
      "inputs": [
        {
          "internalType": "address",
          "name": "",
          "type": "address"
        }
      ],
      "name": "depositStart",
      "outputs": [
        {
          "internalType": "uint256",
          "name": "",
          "type": "uint256"
        }
      ],
      "stateMutability": "view",
      "type": "function"
    },
    {
      "inputs": [
        {
          "internalType": "address",
          "name": "",
          "type": "address"
        }
      ],
      "name": "etherBalanceOf",
      "outputs": [
        {
          "internalType": "uint256",
          "name": "",
          "type": "uint256"
        }
      ],
      "stateMutability": "view",
      "type": "function"
    },
    {
      "inputs": [
        {
          "internalType": "address",
          "name": "",
          "type": "address"
        }
      ],
      "name": "isBorrowed",
      "outputs": [
        {
          "internalType": "bool",
          "name": "",
          "type": "bool"
        }
      ],
      "stateMutability": "view",
      "type": "function"
    },
    {
      "inputs": [
        {
          "internalType": "address",
          "name": "",
          "type": "address"
        }
      ],
      "name": "isDeposited",
      "outputs": [
        {
          "internalType": "bool",
          "name": "",
          "type": "bool"
        }
      ],
      "stateMutability": "view",
      "type": "function"
    },
    {
      "inputs": [],
      "name": "deposit",
      "outputs": [],
      "stateMutability": "payable",
      "type": "function"
    },
    {
      "inputs": [],
      "name": "withdraw",
      "outputs": [],
      "stateMutability": "nonpayable",
      "type": "function"
    }
  ],
  "bytecode": "0x608060405234801561001057600080fd5b50604051610b0d380380610b0d8339818101604052602081101561003357600080fd5b8101908080519060200190929190505050806000806101000a81548173ffffffffffffffffffffffffffffffffffffffff021916908373ffffffffffffffffffffffffffffffffffffffff16021790555050610a79806100946000396000f3fe6080604052600436106100705760003560e01c806375a40d2a1161004e57806375a40d2a14610158578063cdebd932146101bd578063d0e30db014610224578063ff87930a1461022e57610070565b8063179fc99f146100755780633ccfd60b146100da57806373732024146100f1575b600080fd5b34801561008157600080fd5b506100c46004803603602081101561009857600080fd5b81019080803573ffffffffffffffffffffffffffffffffffffffff169060200190929190505050610293565b6040518082815260200191505060405180910390f35b3480156100e657600080fd5b506100ef6102ab565b005b3480156100fd57600080fd5b506101406004803603602081101561011457600080fd5b81019080803573ffffffffffffffffffffffffffffffffffffffff1690602001909291905050506106d1565b60405180821515815260200191505060405180910390f35b34801561016457600080fd5b506101a76004803603602081101561017b57600080fd5b81019080803573ffffffffffffffffffffffffffffffffffffffff1690602001909291905050506106f1565b6040518082815260200191505060405180910390f35b3480156101c957600080fd5b5061020c600480360360208110156101e057600080fd5b81019080803573ffffffffffffffffffffffffffffffffffffffff169060200190929190505050610709565b60405180821515815260200191505060405180910390f35b61022c610729565b005b34801561023a57600080fd5b5061027d6004803603602081101561025157600080fd5b81019080803573ffffffffffffffffffffffffffffffffffffffff169060200190929190505050610a09565b6040518082815260200191505060405180910390f35b60026020528060005260406000206000915090505481565b60011515600460003373ffffffffffffffffffffffffffffffffffffffff1673ffffffffffffffffffffffffffffffffffffffff16815260200190815260200160002060009054906101000a900460ff16151514610371576040517f08c379a000000000000000000000000000000000000000000000000000000000815260040180806020018281038252601a8152602001807f4572726f722c206e6f2070726576696f7573206465706f73697400000000000081525060200191505060405180910390fd5b6000600260003373ffffffffffffffffffffffffffffffffffffffff1673ffffffffffffffffffffffffffffffffffffffff1681526020019081526020016000205490506000600160003373ffffffffffffffffffffffffffffffffffffffff1673ffffffffffffffffffffffffffffffffffffffff16815260200190815260200160002054420390506000662386f26fc10000600260003373ffffffffffffffffffffffffffffffffffffffff1673ffffffffffffffffffffffffffffffffffffffff168152602001908152602001600020548161044c57fe5b046301e33731029050600082820290503373ffffffffffffffffffffffffffffffffffffffff166108fc600260003373ffffffffffffffffffffffffffffffffffffffff1673ffffffffffffffffffffffffffffffffffffffff168152602001908152602001600020549081150290604051600060405180830381858888f193505050501580156104e1573d6000803e3d6000fd5b5060008054906101000a900473ffffffffffffffffffffffffffffffffffffffff1673ffffffffffffffffffffffffffffffffffffffff166340c10f1933836040518363ffffffff1660e01b8152600401808373ffffffffffffffffffffffffffffffffffffffff16815260200182815260200192505050600060405180830381600087803b15801561057357600080fd5b505af1158015610587573d6000803e3d6000fd5b505050506000600160003373ffffffffffffffffffffffffffffffffffffffff1673ffffffffffffffffffffffffffffffffffffffff168152602001908152602001600020819055506000600260003373ffffffffffffffffffffffffffffffffffffffff1673ffffffffffffffffffffffffffffffffffffffff168152602001908152602001600020819055506000600460003373ffffffffffffffffffffffffffffffffffffffff1673ffffffffffffffffffffffffffffffffffffffff16815260200190815260200160002060006101000a81548160ff0219169083151502179055503373ffffffffffffffffffffffffffffffffffffffff167f02f25270a4d87bea75db541cdfe559334a275b4a233520ed6c0a2429667cca9485858460405180848152602001838152602001828152602001935050505060405180910390a250505050565b60046020528060005260406000206000915054906101000a900460ff1681565b60036020528060005260406000206000915090505481565b60056020528060005260406000206000915054906101000a900460ff1681565b60001515600460003373ffffffffffffffffffffffffffffffffffffffff1673ffffffffffffffffffffffffffffffffffffffff16815260200190815260200160002060009054906101000a900460ff161515146107ef576040517f08c379a000000000000000000000000000000000000000000000000000000000815260040180806020018281038252601d8152602001807f4572726f722c206465706f73697420616c72656164792061637469766500000081525060200191505060405180910390fd5b662386f26fc1000034101561084f576040517f08c379a0000000000000000000000000000000000000000000000000000000008152600401808060200182810382526022815260200180610a226022913960400191505060405180910390fd5b34600260003373ffffffffffffffffffffffffffffffffffffffff1673ffffffffffffffffffffffffffffffffffffffff1681526020019081526020016000205401600260003373ffffffffffffffffffffffffffffffffffffffff1673ffffffffffffffffffffffffffffffffffffffff1681526020019081526020016000208190555042600160003373ffffffffffffffffffffffffffffffffffffffff1673ffffffffffffffffffffffffffffffffffffffff1681526020019081526020016000205401600160003373ffffffffffffffffffffffffffffffffffffffff1673ffffffffffffffffffffffffffffffffffffffff168152602001908152602001600020819055506001600460003373ffffffffffffffffffffffffffffffffffffffff1673ffffffffffffffffffffffffffffffffffffffff16815260200190815260200160002060006101000a81548160ff0219169083151502179055503373ffffffffffffffffffffffffffffffffffffffff167f90890809c654f11d6e72a28fa60149770a0d11ec6c92319d6ceb2bb0a4ea1a153442604051808381526020018281526020019250505060405180910390a2565b6001602052806000526040600020600091509050548156fe4572726f722c206465706f736974206d757374206265203e3d20302e303120455448a264697066735822122085035cf472fc0983ba8bfa85216da783e8dea808efc47070bf4247e43022a10d64736f6c63430007060033",
  "immutableReferences": {},
  "source": "// SPDX-License-Identifier: MIT\r\npragma solidity >=0.6.0 <0.8.0;\r\n\r\nimport \"./Token.sol\";\r\n\r\ncontract dBank {\r\n\r\n  Token private token;\r\n\r\n  mapping(address => uint) public depositStart;\r\n  mapping(address => uint) public etherBalanceOf;\r\n  mapping(address => uint) public collateralEther;\r\n\r\n  mapping(address => bool) public isDeposited;\r\n  mapping(address => bool) public isBorrowed;\r\n\r\n  event Deposit(address indexed user, uint etherAmount, uint timeStart);\r\n  event Withdraw(address indexed user, uint etherAmount, uint depositTime, uint interest);\r\n  event Borrow(address indexed user, uint collateralEtherAmount, uint borrowedTokenAmount);\r\n  event PayOff(address indexed user, uint fee);\r\n\r\n  constructor(Token _token) public {\r\n    token = _token;\r\n  }\r\n\r\n  function deposit() payable public {\r\n    require(isDeposited[msg.sender] == false, 'Error, deposit already active');\r\n    require(msg.value>=1e16, 'Error, deposit must be >= 0.01 ETH');\r\n\r\n    etherBalanceOf[msg.sender] = etherBalanceOf[msg.sender] + msg.value;\r\n    depositStart[msg.sender] = depositStart[msg.sender] + block.timestamp;\r\n\r\n    isDeposited[msg.sender] = true; //activate deposit status\r\n    emit Deposit(msg.sender, msg.value, block.timestamp);\r\n  }\r\n\r\n  function withdraw() public {\r\n    require(isDeposited[msg.sender]==true, 'Error, no previous deposit');\r\n    uint userBalance = etherBalanceOf[msg.sender]; //for event\r\n\r\n    //check user's hodl time\r\n    uint depositTime = block.timestamp - depositStart[msg.sender];\r\n\r\n    //31668017 - interest(10% APY) per second for min. deposit amount (0.01 ETH), cuz:\r\n    //1e15(10% of 0.01 ETH) / 31577600 (seconds in 365.25 days)\r\n\r\n    //(etherBalanceOf[msg.sender] / 1e16) - calc. how much higher interest will be (based on deposit), e.g.:\r\n    //for min. deposit (0.01 ETH), (etherBalanceOf[msg.sender] / 1e16) = 1 (the same, 31668017/s)\r\n    //for deposit 0.02 ETH, (etherBalanceOf[msg.sender] / 1e16) = 2 (doubled, (2*31668017)/s)\r\n    uint interestPerSecond = 31668017 * (etherBalanceOf[msg.sender] / 1e16);\r\n    uint interest = interestPerSecond * depositTime;\r\n\r\n    //send funds to user\r\n    msg.sender.transfer(etherBalanceOf[msg.sender]); //eth back to user\r\n    token.mint(msg.sender, interest); //interest to user\r\n\r\n    //reset depositer data\r\n    depositStart[msg.sender] = 0;\r\n    etherBalanceOf[msg.sender] = 0;\r\n    isDeposited[msg.sender] = false;\r\n\r\n    emit Withdraw(msg.sender, userBalance, depositTime, interest);\r\n  }\r\n\r\n  // function borrow() payable public {\r\n  //   require(msg.value>=1e16, 'Error, collateral must be >= 0.01 ETH');\r\n  //   require(isBorrowed[msg.sender] == false, 'Error, loan already taken');\r\n\r\n  //   //this Ether will be locked till user payOff the loan\r\n  //   collateralEther[msg.sender] = collateralEther[msg.sender] + msg.value;\r\n\r\n  //   //calc tokens amount to mint, 50% of msg.value\r\n  //   uint tokensToMint = collateralEther[msg.sender] / 2;\r\n\r\n  //   //mint&send tokens to user\r\n  //   token.mint(msg.sender, tokensToMint);\r\n\r\n  //   //activate borrower's loan status\r\n  //   isBorrowed[msg.sender] = true;\r\n\r\n  //   emit Borrow(msg.sender, collateralEther[msg.sender], tokensToMint);\r\n  // }\r\n\r\n  // function payOff() public {\r\n  //   require(isBorrowed[msg.sender] == true, 'Error, loan not active');\r\n  //   require(token.transferFrom(msg.sender, address(this), collateralEther[msg.sender]/2), \"Error, can't receive tokens\"); //must approve dBank 1st\r\n\r\n  //   uint fee = collateralEther[msg.sender]/10; //calc 10% fee\r\n\r\n  //   //send user's collateral minus fee\r\n  //   msg.sender.transfer(collateralEther[msg.sender]-fee);\r\n\r\n  //   //reset borrower's data\r\n  //   collateralEther[msg.sender] = 0;\r\n  //   isBorrowed[msg.sender] = false;\r\n\r\n  //   emit PayOff(msg.sender, fee);\r\n  // }\r\n}\r\n",
  "sourcePath": "/Users/roger.capone/Desktop/dBank/dbank-master/src/contracts/dBank.sol",
  "compiler": {
    "name": "solc",
    "version": "0.7.6+commit.7338295f.Emscripten.clang"
  },
  "schemaVersion": "3.4.1",
  "updatedAt": "2021-06-15T16:14:48.426Z",
  "devdoc": {
    "kind": "dev",
    "methods": {},
    "version": 1
  },
  "userdoc": {
    "kind": "user",
    "methods": {},
    "version": 1
  }
}