{
  "contractName": "Lottery",
  "abi": [
    {
      "inputs": [
        {
          "internalType": "string",
          "name": "_tokenName",
          "type": "string"
        },
        {
          "internalType": "string",
          "name": "_tokenSymbol",
          "type": "string"
        },
        {
          "internalType": "uint256",
          "name": "_maximumTickets",
          "type": "uint256"
        },
        {
          "internalType": "address payable",
          "name": "_gSwapFeeAddress",
          "type": "address"
        }
      ],
      "stateMutability": "nonpayable",
      "type": "constructor"
    },
    {
      "inputs": [],
      "name": "gSwapFeeAddress",
      "outputs": [
        {
          "internalType": "address payable",
          "name": "",
          "type": "address"
        }
      ],
      "stateMutability": "view",
      "type": "function",
      "constant": true
    },
    {
      "inputs": [],
      "name": "latestWinner",
      "outputs": [
        {
          "internalType": "address",
          "name": "",
          "type": "address"
        }
      ],
      "stateMutability": "view",
      "type": "function",
      "constant": true
    },
    {
      "inputs": [],
      "name": "maxTickets",
      "outputs": [
        {
          "internalType": "uint256",
          "name": "",
          "type": "uint256"
        }
      ],
      "stateMutability": "view",
      "type": "function",
      "constant": true
    },
    {
      "inputs": [],
      "name": "randomNum",
      "outputs": [
        {
          "internalType": "uint256",
          "name": "",
          "type": "uint256"
        }
      ],
      "stateMutability": "view",
      "type": "function",
      "constant": true
    },
    {
      "inputs": [],
      "name": "remaingTickets",
      "outputs": [
        {
          "internalType": "uint256",
          "name": "",
          "type": "uint256"
        }
      ],
      "stateMutability": "view",
      "type": "function",
      "constant": true
    },
    {
      "inputs": [],
      "name": "ticketCount",
      "outputs": [
        {
          "internalType": "uint256",
          "name": "",
          "type": "uint256"
        }
      ],
      "stateMutability": "view",
      "type": "function",
      "constant": true
    },
    {
      "inputs": [
        {
          "internalType": "uint256",
          "name": "",
          "type": "uint256"
        }
      ],
      "name": "tickets",
      "outputs": [
        {
          "internalType": "address",
          "name": "",
          "type": "address"
        }
      ],
      "stateMutability": "view",
      "type": "function",
      "constant": true
    },
    {
      "inputs": [],
      "name": "tokenName",
      "outputs": [
        {
          "internalType": "string",
          "name": "",
          "type": "string"
        }
      ],
      "stateMutability": "view",
      "type": "function",
      "constant": true
    },
    {
      "inputs": [],
      "name": "tokenSymbol",
      "outputs": [
        {
          "internalType": "string",
          "name": "",
          "type": "string"
        }
      ],
      "stateMutability": "view",
      "type": "function",
      "constant": true
    },
    {
      "inputs": [
        {
          "internalType": "address",
          "name": "",
          "type": "address"
        }
      ],
      "name": "winnings",
      "outputs": [
        {
          "internalType": "uint256",
          "name": "",
          "type": "uint256"
        }
      ],
      "stateMutability": "view",
      "type": "function",
      "constant": true
    },
    {
      "inputs": [],
      "name": "buy",
      "outputs": [],
      "stateMutability": "payable",
      "type": "function",
      "payable": true
    },
    {
      "inputs": [],
      "name": "withdraw",
      "outputs": [],
      "stateMutability": "nonpayable",
      "type": "function"
    },
    {
      "inputs": [],
      "name": "chooseWinner",
      "outputs": [],
      "stateMutability": "nonpayable",
      "type": "function"
    },
    {
      "inputs": [],
      "name": "ticketsLength",
      "outputs": [
        {
          "internalType": "uint256",
          "name": "",
          "type": "uint256"
        }
      ],
      "stateMutability": "view",
      "type": "function",
      "constant": true
    }
  ],
  "bytecode": "0x60806040526040518060400160405280600881526020017f674c6f7474657279000000000000000000000000000000000000000000000000815250600290805190602001906200005192919062000309565b506040518060400160405280600481526020017f674c4f5400000000000000000000000000000000000000000000000000000000815250600390805190602001906200009f92919062000309565b506064600455600060055560006006556000600755348015620000c157600080fd5b5060405162000e2938038062000e2983398181016040526080811015620000e757600080fd5b81019080805160405193929190846401000000008211156200010857600080fd5b838201915060208201858111156200011f57600080fd5b82518660018202830111640100000000821117156200013d57600080fd5b8083526020830192505050908051906020019080838360005b838110156200017357808201518184015260208101905062000156565b50505050905090810190601f168015620001a15780820380516001836020036101000a031916815260200191505b5060405260200180516040519392919084640100000000821115620001c557600080fd5b83820191506020820185811115620001dc57600080fd5b8251866001820283011164010000000082111715620001fa57600080fd5b8083526020830192505050908051906020019080838360005b838110156200023057808201518184015260208101905062000213565b50505050905090810190601f1680156200025e5780820380516001836020036101000a031916815260200191505b50604052602001805190602001909291908051906020019092919050505083600290805190602001906200029492919062000309565b508260039080519060200190620002ad92919062000309565b508160048190555060045460058190555080600960006101000a81548173ffffffffffffffffffffffffffffffffffffffff021916908373ffffffffffffffffffffffffffffffffffffffff16021790555050505050620003af565b828054600181600116156101000203166002900490600052602060002090601f016020900481019282601f106200034c57805160ff19168380011785556200037d565b828001600101855582156200037d579182015b828111156200037c5782518255916020019190600101906200035f565b5b5090506200038c919062000390565b5090565b5b80821115620003ab57600081600090555060010162000391565b5090565b610a6a80620003bf6000396000f3fe6080604052600436106100dd5760003560e01c80639b8947031161007f578063cd38aa8711610059578063cd38aa871461038b578063cfbd900f146103a2578063ea3a1499146103cd578063f630aa6514610432576100dd565b80639b8947031461032b578063a6f2ae3a14610356578063b8cfc41214610360576100dd565b806350b44712116100bb57806350b447121461017b5780636c02a931146101e05780637b61c320146102705780638132619114610300576100dd565b806306ef53e0146100e257806335ee4ff4146101235780633ccfd60b14610164575b600080fd5b3480156100ee57600080fd5b506100f761045d565b604051808273ffffffffffffffffffffffffffffffffffffffff16815260200191505060405180910390f35b34801561012f57600080fd5b50610138610483565b604051808273ffffffffffffffffffffffffffffffffffffffff16815260200191505060405180910390f35b34801561017057600080fd5b506101796104a9565b005b34801561018757600080fd5b506101b46004803603602081101561019e57600080fd5b8101908080359060200190929190505050610653565b604051808273ffffffffffffffffffffffffffffffffffffffff16815260200191505060405180910390f35b3480156101ec57600080fd5b506101f561068f565b6040518080602001828103825283818151815260200191508051906020019080838360005b8381101561023557808201518184015260208101905061021a565b50505050905090810190601f1680156102625780820380516001836020036101000a031916815260200191505b509250505060405180910390f35b34801561027c57600080fd5b5061028561072d565b6040518080602001828103825283818151815260200191508051906020019080838360005b838110156102c55780820151818401526020810190506102aa565b50505050905090810190601f1680156102f25780820380516001836020036101000a031916815260200191505b509250505060405180910390f35b34801561030c57600080fd5b506103156107cb565b6040518082815260200191505060405180910390f35b34801561033757600080fd5b506103406107d1565b6040518082815260200191505060405180910390f35b61035e6107d7565b005b34801561036c57600080fd5b5061037561089b565b6040518082815260200191505060405180910390f35b34801561039757600080fd5b506103a06108a8565b005b3480156103ae57600080fd5b506103b76109d2565b6040518082815260200191505060405180910390f35b3480156103d957600080fd5b5061041c600480360360208110156103f057600080fd5b81019080803573ffffffffffffffffffffffffffffffffffffffff1690602001909291905050506109d8565b6040518082815260200191505060405180910390f35b34801561043e57600080fd5b506104476109f0565b6040518082815260200191505060405180910390f35b600860009054906101000a900473ffffffffffffffffffffffffffffffffffffffff1681565b600960009054906101000a900473ffffffffffffffffffffffffffffffffffffffff1681565b60008060003373ffffffffffffffffffffffffffffffffffffffff1673ffffffffffffffffffffffffffffffffffffffff16815260200190815260200160002054116104f457600080fd5b60008060003373ffffffffffffffffffffffffffffffffffffffff1673ffffffffffffffffffffffffffffffffffffffff1681526020019081526020016000205490506706f05b59d3b20000810290506000600a600283028161055357fe5b0490508082039150600960009054906101000a900473ffffffffffffffffffffffffffffffffffffffff1673ffffffffffffffffffffffffffffffffffffffff166108fc829081150290604051600060405180830381858888f193505050501580156105c3573d6000803e3d6000fd5b503373ffffffffffffffffffffffffffffffffffffffff166108fc839081150290604051600060405180830381858888f1935050505015801561060a573d6000803e3d6000fd5b5060008060003373ffffffffffffffffffffffffffffffffffffffff1673ffffffffffffffffffffffffffffffffffffffff168152602001908152602001600020819055505050565b6001818154811061066057fe5b906000526020600020016000915054906101000a900473ffffffffffffffffffffffffffffffffffffffff1681565b60028054600181600116156101000203166002900480601f0160208091040260200160405190810160405280929190818152602001828054600181600116156101000203166002900480156107255780601f106106fa57610100808354040283529160200191610725565b820191906000526020600020905b81548152906001019060200180831161070857829003601f168201915b505050505081565b60038054600181600116156101000203166002900480601f0160208091040260200160405190810160405280929190818152602001828054600181600116156101000203166002900480156107c35780601f10610798576101008083540402835291602001916107c3565b820191906000526020600020905b8154815290600101906020018083116107a657829003601f168201915b505050505081565b60055481565b60045481565b6706f05b59d3b2000034146107eb57600080fd5b60006706f05b59d3b2000034816107fe57fe5b04905060055481600554031061081357600080fd5b806005600082825403925050819055506001339080600181540180825580915050600190039060005260206000200160009091909190916101000a81548173ffffffffffffffffffffffffffffffffffffffff021916908373ffffffffffffffffffffffffffffffffffffffff16021790555060066000815480929190600101919050555050565b6000600180549050905090565b6000600654116108b757600080fd5b600654600143034060001c816108c957fe5b066007819055506001600754815481106108df57fe5b9060005260206000200160009054906101000a900473ffffffffffffffffffffffffffffffffffffffff16600860006101000a81548173ffffffffffffffffffffffffffffffffffffffff021916908373ffffffffffffffffffffffffffffffffffffffff160217905550600654600080600860009054906101000a900473ffffffffffffffffffffffffffffffffffffffff1673ffffffffffffffffffffffffffffffffffffffff1673ffffffffffffffffffffffffffffffffffffffff168152602001908152602001600020819055506000600681905550600454600581905550600160006109d091906109f6565b565b60065481565b60006020528060005260406000206000915090505481565b60075481565b5080546000825590600052602060002090810190610a149190610a17565b50565b5b80821115610a30576000816000905550600101610a18565b509056fea264697066735822122095b2e6ff3606c2c3c390aced3ab49e1889bb6e6a7a2ca549fcb0f3d694544d1d64736f6c634300060c0033",
  "immutableReferences": {},
  "source": "pragma solidity 0.6.12;\n\nimport \"@openzeppelin/contracts/math/SafeMath.sol\";\n\ncontract Lottery {\n    using SafeMath for uint256;\n\n    mapping(address => uint256) public winnings;\n    address[] public tickets;\n\n    string public tokenName = \"gLottery\";\n    string public tokenSymbol = \"gLOT\";\n    uint256 public maxTickets = 100;\n    uint256 public remaingTickets = 0;\n    uint256 public ticketCount = 0;\n    uint256 public randomNum = 0;\n    address public latestWinner;\n    address payable public gSwapFeeAddress;\n\n    constructor(\n        string memory _tokenName,\n        string memory _tokenSymbol,\n        uint256 _maximumTickets,\n        address payable _gSwapFeeAddress\n    ) public {\n        tokenName = _tokenName;\n        tokenSymbol = _tokenSymbol;\n        maxTickets = _maximumTickets;\n        remaingTickets = maxTickets;\n        gSwapFeeAddress = _gSwapFeeAddress;\n    }\n\n    function buy() public payable {\n        require(msg.value == 500000000000000000); //! 0.5 EWT\n        uint256 val = msg.value / 500000000000000000;\n\n        require(remaingTickets - val < remaingTickets);\n        remaingTickets -= val;\n\n        tickets.push(msg.sender);\n        ticketCount++;\n    }\n\n    function withdraw() public {\n        require(winnings[msg.sender] > 0);\n\n        uint256 amountToWithdraw = winnings[msg.sender];\n\n        amountToWithdraw *= 500000000000000000;\n        uint256 gSwapFee = (amountToWithdraw * 2) / 10;\n        amountToWithdraw = amountToWithdraw - gSwapFee;\n\n        gSwapFeeAddress.transfer(gSwapFee);\n        msg.sender.transfer(amountToWithdraw);\n        winnings[msg.sender] = 0;\n    }\n\n    function chooseWinner() public {\n        require(ticketCount > 0);\n        randomNum = uint256(blockhash(block.number - 1)) % ticketCount;\n\n        latestWinner = tickets[randomNum];\n\n        winnings[latestWinner] = ticketCount;\n        ticketCount = 0;\n        remaingTickets = maxTickets;\n\n        delete tickets;\n    }\n\n    function ticketsLength() external view returns (uint256) {\n        return tickets.length;\n    }\n}\n",
  "sourcePath": "/Users/roger.capone/Desktop/carbonCopy/carbonTruffle/src/contracts/Lottery.sol",
  "compiler": {
    "name": "solc",
    "version": "0.6.12+commit.27d51765.Emscripten.clang"
  },
  "schemaVersion": "3.4.1",
  "updatedAt": "2021-06-27T20:12:35.575Z",
  "networkType": "ethereum",
  "devdoc": {
    "kind": "dev",
    "methods": {},
    "version": 1
  },
  "userdoc": {
    "kind": "user",
    "methods": {},
    "version": 1
  }
}